{"abi":[{"type":"constructor","inputs":[],"stateMutability":"nonpayable"},{"type":"function","name":"addLeaderboardEntry","inputs":[{"name":"score","type":"uint256","internalType":"uint256"},{"name":"previous","type":"uint256","internalType":"uint256"}],"outputs":[],"stateMutability":"nonpayable"},{"type":"function","name":"approve","inputs":[{"name":"to","type":"address","internalType":"address"},{"name":"tokenId","type":"uint256","internalType":"uint256"}],"outputs":[],"stateMutability":"nonpayable"},{"type":"function","name":"balanceOf","inputs":[{"name":"owner","type":"address","internalType":"address"}],"outputs":[{"name":"","type":"uint256","internalType":"uint256"}],"stateMutability":"view"},{"type":"function","name":"getApproved","inputs":[{"name":"tokenId","type":"uint256","internalType":"uint256"}],"outputs":[{"name":"","type":"address","internalType":"address"}],"stateMutability":"view"},{"type":"function","name":"getLeaderboard","inputs":[{"name":"from","type":"uint256","internalType":"uint256"},{"name":"items","type":"uint256","internalType":"uint256"}],"outputs":[{"name":"","type":"tuple[]","internalType":"struct FlazkyBird.LeaderboardEntry[]","components":[{"name":"player","type":"address","internalType":"address"},{"name":"score","type":"uint256","internalType":"uint256"},{"name":"next","type":"uint256","internalType":"uint256"}]},{"name":"nextIndex","type":"uint256","internalType":"uint256"}],"stateMutability":"view"},{"type":"function","name":"isApprovedForAll","inputs":[{"name":"owner","type":"address","internalType":"address"},{"name":"operator","type":"address","internalType":"address"}],"outputs":[{"name":"","type":"bool","internalType":"bool"}],"stateMutability":"view"},{"type":"function","name":"leader","inputs":[],"outputs":[{"name":"","type":"uint256","internalType":"uint256"}],"stateMutability":"view"},{"type":"function","name":"leaderboard","inputs":[{"name":"","type":"uint256","internalType":"uint256"}],"outputs":[{"name":"player","type":"address","internalType":"address"},{"name":"score","type":"uint256","internalType":"uint256"},{"name":"next","type":"uint256","internalType":"uint256"}],"stateMutability":"view"},{"type":"function","name":"name","inputs":[],"outputs":[{"name":"","type":"string","internalType":"string"}],"stateMutability":"view"},{"type":"function","name":"ownerOf","inputs":[{"name":"tokenId","type":"uint256","internalType":"uint256"}],"outputs":[{"name":"","type":"address","internalType":"address"}],"stateMutability":"view"},{"type":"function","name":"safeTransferFrom","inputs":[{"name":"from","type":"address","internalType":"address"},{"name":"to","type":"address","internalType":"address"},{"name":"tokenId","type":"uint256","internalType":"uint256"}],"outputs":[],"stateMutability":"nonpayable"},{"type":"function","name":"safeTransferFrom","inputs":[{"name":"from","type":"address","internalType":"address"},{"name":"to","type":"address","internalType":"address"},{"name":"tokenId","type":"uint256","internalType":"uint256"},{"name":"data","type":"bytes","internalType":"bytes"}],"outputs":[],"stateMutability":"nonpayable"},{"type":"function","name":"setApprovalForAll","inputs":[{"name":"operator","type":"address","internalType":"address"},{"name":"approved","type":"bool","internalType":"bool"}],"outputs":[],"stateMutability":"nonpayable"},{"type":"function","name":"supportsInterface","inputs":[{"name":"interfaceId","type":"bytes4","internalType":"bytes4"}],"outputs":[{"name":"","type":"bool","internalType":"bool"}],"stateMutability":"view"},{"type":"function","name":"symbol","inputs":[],"outputs":[{"name":"","type":"string","internalType":"string"}],"stateMutability":"view"},{"type":"function","name":"tokenURI","inputs":[{"name":"tokenId","type":"uint256","internalType":"uint256"}],"outputs":[{"name":"","type":"string","internalType":"string"}],"stateMutability":"view"},{"type":"function","name":"transferFrom","inputs":[{"name":"from","type":"address","internalType":"address"},{"name":"to","type":"address","internalType":"address"},{"name":"tokenId","type":"uint256","internalType":"uint256"}],"outputs":[],"stateMutability":"nonpayable"},{"type":"event","name":"Approval","inputs":[{"name":"owner","type":"address","indexed":true,"internalType":"address"},{"name":"approved","type":"address","indexed":true,"internalType":"address"},{"name":"tokenId","type":"uint256","indexed":true,"internalType":"uint256"}],"anonymous":false},{"type":"event","name":"ApprovalForAll","inputs":[{"name":"owner","type":"address","indexed":true,"internalType":"address"},{"name":"operator","type":"address","indexed":true,"internalType":"address"},{"name":"approved","type":"bool","indexed":false,"internalType":"bool"}],"anonymous":false},{"type":"event","name":"Transfer","inputs":[{"name":"from","type":"address","indexed":true,"internalType":"address"},{"name":"to","type":"address","indexed":true,"internalType":"address"},{"name":"tokenId","type":"uint256","indexed":true,"internalType":"uint256"}],"anonymous":false},{"type":"error","name":"ERC721IncorrectOwner","inputs":[{"name":"sender","type":"address","internalType":"address"},{"name":"tokenId","type":"uint256","internalType":"uint256"},{"name":"owner","type":"address","internalType":"address"}]},{"type":"error","name":"ERC721InsufficientApproval","inputs":[{"name":"operator","type":"address","internalType":"address"},{"name":"tokenId","type":"uint256","internalType":"uint256"}]},{"type":"error","name":"ERC721InvalidApprover","inputs":[{"name":"approver","type":"address","internalType":"address"}]},{"type":"error","name":"ERC721InvalidOperator","inputs":[{"name":"operator","type":"address","internalType":"address"}]},{"type":"error","name":"ERC721InvalidOwner","inputs":[{"name":"owner","type":"address","internalType":"address"}]},{"type":"error","name":"ERC721InvalidReceiver","inputs":[{"name":"receiver","type":"address","internalType":"address"}]},{"type":"error","name":"ERC721InvalidSender","inputs":[{"name":"sender","type":"address","internalType":"address"}]},{"type":"error","name":"ERC721NonexistentToken","inputs":[{"name":"tokenId","type":"uint256","internalType":"uint256"}]}],"bytecode":{"object":"0x608060405234801561001057600080fd5b506040518060400160405280600a815260200169119b185e9ade509a5c9960b21b815250604051806040016040528060038152602001622d25a160e91b815250816000908161005f9190610115565b50600161006c8282610115565b5050506101d4565b634e487b7160e01b600052604160045260246000fd5b600181811c9082168061009e57607f821691505b6020821081036100be57634e487b7160e01b600052602260045260246000fd5b50919050565b601f821115610110576000816000526020600020601f850160051c810160208610156100ed5750805b601f850160051c820191505b8181101561010c578281556001016100f9565b5050505b505050565b81516001600160401b0381111561012e5761012e610074565b6101428161013c845461008a565b846100c4565b602080601f831160018114610177576000841561015f5750858301515b600019600386901b1c1916600185901b17855561010c565b600085815260208120601f198616915b828110156101a657888601518255948401946001909101908401610187565b50858210156101c45787850151600019600388901b60f8161c191681555b5050505050600190811b01905550565b6118ec806101e36000396000f3fe608060405234801561001057600080fd5b506004361061010b5760003560e01c80636352211e116100a2578063a22cb46511610071578063a22cb4651461022c578063b88d4fde1461023f578063bf36839914610252578063c87b56dd146102b0578063e985e9c5146102c357600080fd5b80636352211e146101dd57806370a08231146101f057806373af16fc1461020357806395d89b411461022457600080fd5b806323b872dd116100de57806323b872dd1461018d57806340eedabb146101a057806342842e0e146101b75780635e0a74b9146101ca57600080fd5b806301ffc9a71461011057806306fdde0314610138578063081812fc1461014d578063095ea7b314610178575b600080fd5b61012361011e36600461127e565b6102d6565b60405190151581526020015b60405180910390f35b610140610328565b60405161012f91906112f2565b61016061015b366004611305565b6103ba565b6040516001600160a01b03909116815260200161012f565b61018b61018636600461133a565b6103e3565b005b61018b61019b366004611364565b6103f2565b6101a960075481565b60405190815260200161012f565b61018b6101c5366004611364565b610482565b61018b6101d83660046113a0565b6104a2565b6101606101eb366004611305565b610763565b6101a96101fe3660046113c2565b61076e565b6102166102113660046113a0565b6107b6565b60405161012f9291906113dd565b6101406108e3565b61018b61023a366004611449565b6108f2565b61018b61024d36600461149b565b6108fd565b61028b610260366004611305565b6006602052600090815260409020805460018201546002909201546001600160a01b03909116919083565b604080516001600160a01b03909416845260208401929092529082015260600161012f565b6101406102be366004611305565b610914565b6101236102d1366004611577565b6109ff565b60006001600160e01b031982166380ac58cd60e01b148061030757506001600160e01b03198216635b5e139f60e01b145b8061032257506301ffc9a760e01b6001600160e01b03198316145b92915050565b606060008054610337906115aa565b80601f0160208091040260200160405190810160405280929190818152602001828054610363906115aa565b80156103b05780601f10610385576101008083540402835291602001916103b0565b820191906000526020600020905b81548152906001019060200180831161039357829003601f168201915b5050505050905090565b60006103c582610a2d565b506000828152600460205260409020546001600160a01b0316610322565b6103ee828233610a66565b5050565b6001600160a01b03821661042157604051633250574960e11b8152600060048201526024015b60405180910390fd5b600061042e838333610a73565b9050836001600160a01b0316816001600160a01b03161461047c576040516364283d7b60e01b81526001600160a01b0380861660048301526024820184905282166044820152606401610418565b50505050565b61049d838383604051806020016040528060008152506108fd565b505050565b600880549060006104b2836115fa565b919050555060008160000361057d5760085460011461057257600754600090815260066020908152604091829020825160608101845281546001600160a01b03168152600182015492810183905260029091015492810192909252841161056c5760405162461bcd60e51b815260206004820152602860248201527f73636f72652073686f756c6420626520686967686572207468616e2063757272604482015267195b9d081b19585960c21b6064820152608401610418565b50506007545b6008546007556106fd565b600082815260066020908152604091829020825160608101845281546001600160a01b0316815260018201549281018390526002909101549281019290925284111561060b5760405162461bcd60e51b815260206004820152601e60248201527f70726576696f757320656e74727920686173206c6f7765722073636f726500006044820152606401610418565b6040810151915081156106b757600082815260066020908152604091829020825160608101845281546001600160a01b0316815260018201549281019290925260020154818301529082015183146106a55760405162461bcd60e51b815260206004820152601a60248201527f707265762f6e6578742061726520696e636f6e73697374656e740000000000006044820152606401610418565b848160200151106106b557600080fd5b505b6008546040828101918252600085815260066020908152919020835181546001600160a01b0319166001600160a01b039091161781559201516001830155516002909101555b60408051606081018252338082526020808301878152838501868152600880546000908152600690945295909220935184546001600160a01b0319166001600160a01b0390911617845551600184015551600290920191909155905461049d9190610b6c565b600061032282610a2d565b60006001600160a01b03821661079a576040516322718ad960e21b815260006004820152602401610418565b506001600160a01b031660009081526003602052604090205490565b60606000808367ffffffffffffffff8111156107d4576107d4611485565b60405190808252806020026020018201604052801561083257816020015b61081f604051806060016040528060006001600160a01b0316815260200160008152602001600081525090565b8152602001906001900390816107f25790505b50905084600081900361084457506007545b60005b858110156108d757600082815260066020908152604091829020825160608101845281546001600160a01b03168152600182015492810192909252600201549181019190915283518490839081106108a1576108a1611613565b60200260200101819052508281815181106108be576108be611613565b6020908102919091010151604001519150600101610847565b50909590945092505050565b606060018054610337906115aa565b6103ee338383610b86565b6109088484846103f2565b61047c84848484610c25565b60606008548211156109685760405162461bcd60e51b815260206004820152601760248201527f74686973204e465420646f6573206e6f742065786973740000000000000000006044820152606401610418565b600082815260066020908152604091829020825160608101845281546001600160a01b031681526001820154928101839052600290910154928101929092526109d8906109b490610d4e565b6040516020016109c49190611629565b604051602081830303815290604052610de1565b6040516020016109e8919061178b565b604051602081830303815290604052915050919050565b6001600160a01b03918216600090815260056020908152604080832093909416825291909152205460ff1690565b6000818152600260205260408120546001600160a01b03168061032257604051637e27328960e01b815260048101849052602401610418565b61049d8383836001610f41565b6000828152600260205260408120546001600160a01b0390811690831615610aa057610aa0818486611047565b6001600160a01b03811615610ade57610abd600085600080610f41565b6001600160a01b038116600090815260036020526040902080546000190190555b6001600160a01b03851615610b0d576001600160a01b0385166000908152600360205260409020805460010190555b60008481526002602052604080822080546001600160a01b0319166001600160a01b0389811691821790925591518793918516917fddf252ad1be2c89b69c2b068fc378daa952ba7f163c4a11628f55a4df523b3ef91a4949350505050565b6103ee8282604051806020016040528060008152506110ab565b6001600160a01b038216610bb857604051630b61174360e31b81526001600160a01b0383166004820152602401610418565b6001600160a01b03838116600081815260056020908152604080832094871680845294825291829020805460ff191686151590811790915591519182527f17307eab39ab6107e8899845ad3d59bd9653f200f220920489ca2b5937696c31910160405180910390a3505050565b6001600160a01b0383163b1561047c57604051630a85bd0160e11b81526001600160a01b0384169063150b7a0290610c679033908890879087906004016117d0565b6020604051808303816000875af1925050508015610ca2575060408051601f3d908101601f19168201909252610c9f9181019061180d565b60015b610d0b573d808015610cd0576040519150601f19603f3d011682016040523d82523d6000602084013e610cd5565b606091505b508051600003610d0357604051633250574960e11b81526001600160a01b0385166004820152602401610418565b805181602001fd5b6001600160e01b03198116630a85bd0160e11b14610d4757604051633250574960e11b81526001600160a01b0385166004820152602401610418565b5050505050565b60606000610d5b836110c2565b600101905060008167ffffffffffffffff811115610d7b57610d7b611485565b6040519080825280601f01601f191660200182016040528015610da5576020820181803683370190505b5090508181016020015b600019016f181899199a1a9b1b9c1cb0b131b232b360811b600a86061a8153600a8504945084610daf57509392505050565b60608151600003610e0057505060408051602081019091526000815290565b60006040518060600160405280604081526020016118776040913990506000600384516002610e2f919061182a565b610e39919061183d565b610e4490600461185f565b67ffffffffffffffff811115610e5c57610e5c611485565b6040519080825280601f01601f191660200182016040528015610e86576020820181803683370190505b50905060018201602082018586518701602081018051600082525b82841015610efc576003840193508351603f8160121c168701518653600186019550603f81600c1c168701518653600186019550603f8160061c168701518653600186019550603f8116870151865350600185019450610ea1565b9052505085516003900660018114610f1b5760028114610f2e57610f36565b603d6001830353603d6002830353610f36565b603d60018303535b509195945050505050565b8080610f5557506001600160a01b03821615155b15611017576000610f6584610a2d565b90506001600160a01b03831615801590610f915750826001600160a01b0316816001600160a01b031614155b8015610fa45750610fa281846109ff565b155b15610fcd5760405163a9fbf51f60e01b81526001600160a01b0384166004820152602401610418565b81156110155783856001600160a01b0316826001600160a01b03167f8c5be1e5ebec7d5bd14f71427d1e84f3dd0314c0f7b2291e5b200ac8c7c3b92560405160405180910390a45b505b5050600090815260046020526040902080546001600160a01b0319166001600160a01b0392909216919091179055565b61105283838361119a565b61049d576001600160a01b03831661108057604051637e27328960e01b815260048101829052602401610418565b60405163177e802f60e01b81526001600160a01b038316600482015260248101829052604401610418565b6110b58383611200565b61049d6000848484610c25565b60008072184f03e93ff9f4daa797ed6e38ed64bf6a1f0160401b83106111015772184f03e93ff9f4daa797ed6e38ed64bf6a1f0160401b830492506040015b6d04ee2d6d415b85acef8100000000831061112d576d04ee2d6d415b85acef8100000000830492506020015b662386f26fc10000831061114b57662386f26fc10000830492506010015b6305f5e1008310611163576305f5e100830492506008015b612710831061117757612710830492506004015b60648310611189576064830492506002015b600a83106103225760010192915050565b60006001600160a01b038316158015906111f85750826001600160a01b0316846001600160a01b031614806111d457506111d484846109ff565b806111f857506000828152600460205260409020546001600160a01b038481169116145b949350505050565b6001600160a01b03821661122a57604051633250574960e11b815260006004820152602401610418565b600061123883836000610a73565b90506001600160a01b0381161561049d576040516339e3563760e11b815260006004820152602401610418565b6001600160e01b03198116811461127b57600080fd5b50565b60006020828403121561129057600080fd5b813561129b81611265565b9392505050565b60005b838110156112bd5781810151838201526020016112a5565b50506000910152565b600081518084526112de8160208601602086016112a2565b601f01601f19169290920160200192915050565b60208152600061129b60208301846112c6565b60006020828403121561131757600080fd5b5035919050565b80356001600160a01b038116811461133557600080fd5b919050565b6000806040838503121561134d57600080fd5b6113568361131e565b946020939093013593505050565b60008060006060848603121561137957600080fd5b6113828461131e565b92506113906020850161131e565b9150604084013590509250925092565b600080604083850312156113b357600080fd5b50508035926020909101359150565b6000602082840312156113d457600080fd5b61129b8261131e565b6040808252835182820181905260009190606090818501906020808901865b8381101561143257815180516001600160a01b0316865283810151848701528701518786015293850193908201906001016113fc565b505050508093505050508260208301529392505050565b6000806040838503121561145c57600080fd5b6114658361131e565b91506020830135801515811461147a57600080fd5b809150509250929050565b634e487b7160e01b600052604160045260246000fd5b600080600080608085870312156114b157600080fd5b6114ba8561131e565b93506114c86020860161131e565b925060408501359150606085013567ffffffffffffffff808211156114ec57600080fd5b818701915087601f83011261150057600080fd5b81358181111561151257611512611485565b604051601f8201601f19908116603f0116810190838211818310171561153a5761153a611485565b816040528281528a602084870101111561155357600080fd5b82602086016020830137600060208483010152809550505050505092959194509250565b6000806040838503121561158a57600080fd5b6115938361131e565b91506115a16020840161131e565b90509250929050565b600181811c908216806115be57607f821691505b6020821081036115de57634e487b7160e01b600052602260045260246000fd5b50919050565b634e487b7160e01b600052601160045260246000fd5b60006001820161160c5761160c6115e4565b5060010190565b634e487b7160e01b600052603260045260246000fd5b7f7b226e616d65223a22466c615a4b7920426972642073636f7265222c0000000081527f226465736372697074696f6e223a20224e4654206f627461696e656420706c61601c8201527f79696e6720466c615a4b79206269726420616e642070726f76696e6720746865603c82015270081cd8dbdc99481bdb8b58da185a5b888b607a1b605c8201527f2261747472696275746573223a205b2273636f7265223a200000000000000000606d82015281516000906116ee8160858501602087016112a2565b61174b60f21b60859390910192830152507f22696d616765223a2268747470733a2f2f746f70706e672e636f6d2f75706c6f60878201527f6164732f707265766965772f666c617070792d626972642d706978656c2d617260a78201527f742d666c617070792d626972642d313135363238393433383533317373706d7660c782015268776e6b2e706e67227d60b81b60e782015260f001919050565b7f646174613a6170706c69636174696f6e2f6a736f6e3b6261736536342c0000008152600082516117c381601d8501602087016112a2565b91909101601d0192915050565b6001600160a01b0385811682528416602082015260408101839052608060608201819052600090611803908301846112c6565b9695505050505050565b60006020828403121561181f57600080fd5b815161129b81611265565b80820180821115610322576103226115e4565b60008261185a57634e487b7160e01b600052601260045260246000fd5b500490565b8082028115828204841417610322576103226115e456fe4142434445464748494a4b4c4d4e4f505152535455565758595a6162636465666768696a6b6c6d6e6f707172737475767778797a303132333435363738392b2fa26469706673582212204f4eb1cfebfadb0caf58827cd75a7a29954188666f9da1fad26b02959b5ffcaf64736f6c63430008190033","linkReferences":{}},"methodIdentifiers":{"addLeaderboardEntry(uint256,uint256)":"5e0a74b9","approve(address,uint256)":"095ea7b3","balanceOf(address)":"70a08231","getApproved(uint256)":"081812fc","getLeaderboard(uint256,uint256)":"73af16fc","isApprovedForAll(address,address)":"e985e9c5","leader()":"40eedabb","leaderboard(uint256)":"bf368399","name()":"06fdde03","ownerOf(uint256)":"6352211e","safeTransferFrom(address,address,uint256)":"42842e0e","safeTransferFrom(address,address,uint256,bytes)":"b88d4fde","setApprovalForAll(address,bool)":"a22cb465","supportsInterface(bytes4)":"01ffc9a7","symbol()":"95d89b41","tokenURI(uint256)":"c87b56dd","transferFrom(address,address,uint256)":"23b872dd"},"id":0}